{
  "address": "0xAFeC3055f052AFC748EBF5197a1E7CB262266d91",
  "abi": [
    {
      "inputs": [
        {
          "internalType": "contract IEntryPoint",
          "name": "_entryPoint",
          "type": "address"
        },
        {
          "internalType": "address",
          "name": "_owner",
          "type": "address"
        }
      ],
      "stateMutability": "nonpayable",
      "type": "constructor"
    },
    {
      "anonymous": false,
      "inputs": [
        {
          "indexed": true,
          "internalType": "address",
          "name": "previousOwner",
          "type": "address"
        },
        {
          "indexed": true,
          "internalType": "address",
          "name": "newOwner",
          "type": "address"
        }
      ],
      "name": "OwnershipTransferred",
      "type": "event"
    },
    {
      "inputs": [],
      "name": "POST_OP_GAS",
      "outputs": [
        {
          "internalType": "uint256",
          "name": "",
          "type": "uint256"
        }
      ],
      "stateMutability": "view",
      "type": "function"
    },
    {
      "inputs": [
        {
          "internalType": "uint32",
          "name": "unstakeDelaySec",
          "type": "uint32"
        }
      ],
      "name": "addStake",
      "outputs": [],
      "stateMutability": "payable",
      "type": "function"
    },
    {
      "inputs": [],
      "name": "deposit",
      "outputs": [],
      "stateMutability": "payable",
      "type": "function"
    },
    {
      "inputs": [],
      "name": "entryPoint",
      "outputs": [
        {
          "internalType": "contract IEntryPoint",
          "name": "",
          "type": "address"
        }
      ],
      "stateMutability": "view",
      "type": "function"
    },
    {
      "inputs": [],
      "name": "getDeposit",
      "outputs": [
        {
          "internalType": "uint256",
          "name": "",
          "type": "uint256"
        }
      ],
      "stateMutability": "view",
      "type": "function"
    },
    {
      "inputs": [
        {
          "components": [
            {
              "internalType": "address",
              "name": "sender",
              "type": "address"
            },
            {
              "internalType": "uint256",
              "name": "nonce",
              "type": "uint256"
            },
            {
              "internalType": "bytes",
              "name": "initCode",
              "type": "bytes"
            },
            {
              "internalType": "bytes",
              "name": "callData",
              "type": "bytes"
            },
            {
              "internalType": "uint256",
              "name": "callGasLimit",
              "type": "uint256"
            },
            {
              "internalType": "uint256",
              "name": "verificationGasLimit",
              "type": "uint256"
            },
            {
              "internalType": "uint256",
              "name": "preVerificationGas",
              "type": "uint256"
            },
            {
              "internalType": "uint256",
              "name": "maxFeePerGas",
              "type": "uint256"
            },
            {
              "internalType": "uint256",
              "name": "maxPriorityFeePerGas",
              "type": "uint256"
            },
            {
              "internalType": "bytes",
              "name": "paymasterAndData",
              "type": "bytes"
            },
            {
              "internalType": "bytes",
              "name": "signature",
              "type": "bytes"
            }
          ],
          "internalType": "struct UserOperation",
          "name": "userOp",
          "type": "tuple"
        },
        {
          "internalType": "uint48",
          "name": "validUntil",
          "type": "uint48"
        },
        {
          "internalType": "uint48",
          "name": "validAfter",
          "type": "uint48"
        },
        {
          "internalType": "address",
          "name": "erc20Token",
          "type": "address"
        },
        {
          "internalType": "uint256",
          "name": "exchangeRate",
          "type": "uint256"
        }
      ],
      "name": "getHash",
      "outputs": [
        {
          "internalType": "bytes32",
          "name": "",
          "type": "bytes32"
        }
      ],
      "stateMutability": "view",
      "type": "function"
    },
    {
      "inputs": [],
      "name": "owner",
      "outputs": [
        {
          "internalType": "address",
          "name": "",
          "type": "address"
        }
      ],
      "stateMutability": "view",
      "type": "function"
    },
    {
      "inputs": [
        {
          "internalType": "bytes",
          "name": "paymasterAndData",
          "type": "bytes"
        }
      ],
      "name": "parsePaymasterAndData",
      "outputs": [
        {
          "internalType": "uint48",
          "name": "validUntil",
          "type": "uint48"
        },
        {
          "internalType": "uint48",
          "name": "validAfter",
          "type": "uint48"
        },
        {
          "internalType": "address",
          "name": "erc20Token",
          "type": "address"
        },
        {
          "internalType": "uint256",
          "name": "exchangeRate",
          "type": "uint256"
        },
        {
          "internalType": "bytes",
          "name": "signature",
          "type": "bytes"
        }
      ],
      "stateMutability": "pure",
      "type": "function"
    },
    {
      "inputs": [
        {
          "internalType": "enum IPaymaster.PostOpMode",
          "name": "mode",
          "type": "uint8"
        },
        {
          "internalType": "bytes",
          "name": "context",
          "type": "bytes"
        },
        {
          "internalType": "uint256",
          "name": "actualGasCost",
          "type": "uint256"
        }
      ],
      "name": "postOp",
      "outputs": [],
      "stateMutability": "nonpayable",
      "type": "function"
    },
    {
      "inputs": [],
      "name": "renounceOwnership",
      "outputs": [],
      "stateMutability": "nonpayable",
      "type": "function"
    },
    {
      "inputs": [
        {
          "internalType": "address",
          "name": "_vault",
          "type": "address"
        }
      ],
      "name": "setVault",
      "outputs": [],
      "stateMutability": "nonpayable",
      "type": "function"
    },
    {
      "inputs": [
        {
          "internalType": "address",
          "name": "_verifier",
          "type": "address"
        }
      ],
      "name": "setVerifier",
      "outputs": [],
      "stateMutability": "nonpayable",
      "type": "function"
    },
    {
      "inputs": [
        {
          "internalType": "address",
          "name": "newOwner",
          "type": "address"
        }
      ],
      "name": "transferOwnership",
      "outputs": [],
      "stateMutability": "nonpayable",
      "type": "function"
    },
    {
      "inputs": [],
      "name": "unlockStake",
      "outputs": [],
      "stateMutability": "nonpayable",
      "type": "function"
    },
    {
      "inputs": [
        {
          "components": [
            {
              "internalType": "address",
              "name": "sender",
              "type": "address"
            },
            {
              "internalType": "uint256",
              "name": "nonce",
              "type": "uint256"
            },
            {
              "internalType": "bytes",
              "name": "initCode",
              "type": "bytes"
            },
            {
              "internalType": "bytes",
              "name": "callData",
              "type": "bytes"
            },
            {
              "internalType": "uint256",
              "name": "callGasLimit",
              "type": "uint256"
            },
            {
              "internalType": "uint256",
              "name": "verificationGasLimit",
              "type": "uint256"
            },
            {
              "internalType": "uint256",
              "name": "preVerificationGas",
              "type": "uint256"
            },
            {
              "internalType": "uint256",
              "name": "maxFeePerGas",
              "type": "uint256"
            },
            {
              "internalType": "uint256",
              "name": "maxPriorityFeePerGas",
              "type": "uint256"
            },
            {
              "internalType": "bytes",
              "name": "paymasterAndData",
              "type": "bytes"
            },
            {
              "internalType": "bytes",
              "name": "signature",
              "type": "bytes"
            }
          ],
          "internalType": "struct UserOperation",
          "name": "userOp",
          "type": "tuple"
        },
        {
          "internalType": "bytes32",
          "name": "userOpHash",
          "type": "bytes32"
        },
        {
          "internalType": "uint256",
          "name": "maxCost",
          "type": "uint256"
        }
      ],
      "name": "validatePaymasterUserOp",
      "outputs": [
        {
          "internalType": "bytes",
          "name": "context",
          "type": "bytes"
        },
        {
          "internalType": "uint256",
          "name": "validationData",
          "type": "uint256"
        }
      ],
      "stateMutability": "nonpayable",
      "type": "function"
    },
    {
      "inputs": [],
      "name": "vault",
      "outputs": [
        {
          "internalType": "address",
          "name": "",
          "type": "address"
        }
      ],
      "stateMutability": "view",
      "type": "function"
    },
    {
      "inputs": [],
      "name": "verifier",
      "outputs": [
        {
          "internalType": "address",
          "name": "",
          "type": "address"
        }
      ],
      "stateMutability": "view",
      "type": "function"
    },
    {
      "inputs": [
        {
          "internalType": "address payable",
          "name": "withdrawAddress",
          "type": "address"
        }
      ],
      "name": "withdrawStake",
      "outputs": [],
      "stateMutability": "nonpayable",
      "type": "function"
    },
    {
      "inputs": [
        {
          "internalType": "address payable",
          "name": "withdrawAddress",
          "type": "address"
        },
        {
          "internalType": "uint256",
          "name": "amount",
          "type": "uint256"
        }
      ],
      "name": "withdrawTo",
      "outputs": [],
      "stateMutability": "nonpayable",
      "type": "function"
    }
  ],
  "transactionHash": "0xc25df0b29826c541fc411d46533558728fb0f93c7e32ebe00b557ed4c3b05a83",
  "args": [
    "0x5FF137D4b0FDCD49DcA30c7CF57E578a026d2789",
    "0xf39Fd6e51aad88F6F4ce6aB8827279cffFb92266"
  ],
  "numDeployments": 1,
  "solcInputHash": "44767b620b9830c978dcdcc5351ca975",
  "bytecode": "0x60a06040523480156200001157600080fd5b5060405162001d2b38038062001d2b8339810160408190526200003491620001c3565b81620000403362000088565b6001600160a01b03166080526200005781620000d8565b600180546001600160a01b039092166001600160a01b03199283168117909155600280549092161790555062000202565b600080546001600160a01b038381166001600160a01b0319831681178455604051919092169283917f8be0079c531659141344cd1fd0a4f28419497f9722a3daafe3b4186f6b6457e09190a35050565b6000546001600160a01b03163314620001385760405162461bcd60e51b815260206004820181905260248201527f4f776e61626c653a2063616c6c6572206973206e6f7420746865206f776e657260448201526064015b60405180910390fd5b6001600160a01b0381166200019f5760405162461bcd60e51b815260206004820152602660248201527f4f776e61626c653a206e6577206f776e657220697320746865207a65726f206160448201526564647265737360d01b60648201526084016200012f565b620001aa8162000088565b50565b6001600160a01b0381168114620001aa57600080fd5b60008060408385031215620001d757600080fd5b8251620001e481620001ad565b6020840151909250620001f781620001ad565b809150509250929050565b608051611adc6200024f600039600081816102c0015281816104310152818161051a015281816107db015281816108c101528181610938015281816109c50152610c2a0152611adc6000f3fe6080604052600436106101445760003560e01c8063a9a23409116100c0578063c399ec8811610074578063f2fde38b11610059578063f2fde38b1461034a578063f465c77e1461036a578063fbfa77cf1461039857600080fd5b8063c399ec881461032d578063d0e30db01461034257600080fd5b8063b8202d8f116100a5578063b8202d8f146102e2578063bb9fe6bf146102f8578063c23a5cea1461030d57600080fd5b8063a9a234091461028e578063b0d691fe146102ae57600080fd5b80635437988d11610117578063715018a6116100fc578063715018a6146102295780638da5cb5b1461023e57806394d4ad601461025c57600080fd5b80635437988d146101e95780636817031b1461020957600080fd5b80630396cb6014610149578063205c28781461015e578063290da2ad1461017e5780632b7ac3f3146101b1575b600080fd5b61015c610157366004611548565b6103b8565b005b34801561016a57600080fd5b5061015c610179366004611583565b61049a565b34801561018a57600080fd5b5061019e6101993660046115e3565b61055e565b6040519081526020015b60405180910390f35b3480156101bd57600080fd5b506001546101d1906001600160a01b031681565b6040516001600160a01b0390911681526020016101a8565b3480156101f557600080fd5b5061015c61020436600461165c565b6105a6565b34801561021557600080fd5b5061015c61022436600461165c565b61062f565b34801561023557600080fd5b5061015c6106b8565b34801561024a57600080fd5b506000546001600160a01b03166101d1565b34801561026857600080fd5b5061027c6102773660046116c2565b61071e565b6040516101a896959493929190611704565b34801561029a57600080fd5b5061015c6102a9366004611767565b610765565b3480156102ba57600080fd5b506101d17f000000000000000000000000000000000000000000000000000000000000000081565b3480156102ee57600080fd5b5061019e6188b881565b34801561030457600080fd5b5061015c61077f565b34801561031957600080fd5b5061015c61032836600461165c565b610848565b34801561033957600080fd5b5061019e610920565b61015c6109b0565b34801561035657600080fd5b5061015c61036536600461165c565b610a12565b34801561037657600080fd5b5061038a6103853660046117c7565b610af4565b6040516101a8929190611865565b3480156103a457600080fd5b506002546101d1906001600160a01b031681565b6000546001600160a01b031633146104175760405162461bcd60e51b815260206004820181905260248201527f4f776e61626c653a2063616c6c6572206973206e6f7420746865206f776e657260448201526064015b60405180910390fd5b604051621cb65b60e51b815263ffffffff821660048201527f00000000000000000000000000000000000000000000000000000000000000006001600160a01b031690630396cb609034906024016000604051808303818588803b15801561047e57600080fd5b505af1158015610492573d6000803e3d6000fd5b505050505050565b6000546001600160a01b031633146104f45760405162461bcd60e51b815260206004820181905260248201527f4f776e61626c653a2063616c6c6572206973206e6f7420746865206f776e6572604482015260640161040e565b60405163040b850f60e31b81526001600160a01b038381166004830152602482018390527f0000000000000000000000000000000000000000000000000000000000000000169063205c287890604401600060405180830381600087803b15801561047e57600080fd5b600061056986610b18565b4630878787876040516020016105859796959493929190611887565b60405160208183030381529060405280519060200120905095945050505050565b6000546001600160a01b031633146106005760405162461bcd60e51b815260206004820181905260248201527f4f776e61626c653a2063616c6c6572206973206e6f7420746865206f776e6572604482015260640161040e565b6001805473ffffffffffffffffffffffffffffffffffffffff19166001600160a01b0392909216919091179055565b6000546001600160a01b031633146106895760405162461bcd60e51b815260206004820181905260248201527f4f776e61626c653a2063616c6c6572206973206e6f7420746865206f776e6572604482015260640161040e565b6002805473ffffffffffffffffffffffffffffffffffffffff19166001600160a01b0392909216919091179055565b6000546001600160a01b031633146107125760405162461bcd60e51b815260206004820181905260248201527f4f776e61626c653a2063616c6c6572206973206e6f7420746865206f776e6572604482015260640161040e565b61071c6000610bc2565b565b6000808080368161073360946014898b6118de565b8101906107409190611908565b92985090965094509250610757876094818b6118de565b915091509295509295509295565b61076d610c1f565b61077984848484610c97565b50505050565b6000546001600160a01b031633146107d95760405162461bcd60e51b815260206004820181905260248201527f4f776e61626c653a2063616c6c6572206973206e6f7420746865206f776e6572604482015260640161040e565b7f00000000000000000000000000000000000000000000000000000000000000006001600160a01b031663bb9fe6bf6040518163ffffffff1660e01b8152600401600060405180830381600087803b15801561083457600080fd5b505af1158015610779573d6000803e3d6000fd5b6000546001600160a01b031633146108a25760405162461bcd60e51b815260206004820181905260248201527f4f776e61626c653a2063616c6c6572206973206e6f7420746865206f776e6572604482015260640161040e565b60405163611d2e7560e11b81526001600160a01b0382811660048301527f0000000000000000000000000000000000000000000000000000000000000000169063c23a5cea90602401600060405180830381600087803b15801561090557600080fd5b505af1158015610919573d6000803e3d6000fd5b5050505050565b6040516370a0823160e01b81523060048201526000907f00000000000000000000000000000000000000000000000000000000000000006001600160a01b0316906370a0823190602401602060405180830381865afa158015610987573d6000803e3d6000fd5b505050506040513d601f19601f820116820180604052508101906109ab9190611955565b905090565b60405163b760faf960e01b81523060048201527f00000000000000000000000000000000000000000000000000000000000000006001600160a01b03169063b760faf99034906024016000604051808303818588803b15801561090557600080fd5b6000546001600160a01b03163314610a6c5760405162461bcd60e51b815260206004820181905260248201527f4f776e61626c653a2063616c6c6572206973206e6f7420746865206f776e6572604482015260640161040e565b6001600160a01b038116610ae85760405162461bcd60e51b815260206004820152602660248201527f4f776e61626c653a206e6577206f776e657220697320746865207a65726f206160448201527f6464726573730000000000000000000000000000000000000000000000000000606482015260840161040e565b610af181610bc2565b50565b60606000610b00610c1f565b610b0b858585610d4c565b915091505b935093915050565b606081356020830135610b36610b31604086018661196e565b610f6b565b610b46610b31606087018761196e565b604080516001600160a01b039095166020860152840192909252606083015260808281019190915283013560a08281019190915283013560c08281019190915283013560e08281019190915283013561010082810191909152830135610120820152610140016040516020818303038152906040529050919050565b600080546001600160a01b0383811673ffffffffffffffffffffffffffffffffffffffff19831681178455604051919092169283917f8be0079c531659141344cd1fd0a4f28419497f9722a3daafe3b4186f6b6457e09190a35050565b336001600160a01b037f0000000000000000000000000000000000000000000000000000000000000000161461071c5760405162461bcd60e51b815260206004820152601560248201527f53656e646572206e6f7420456e747279506f696e740000000000000000000000604482015260640161040e565b600080808080610ca9878901896119b5565b945094509450945094506000818303610cc3575081610cd2565b610ccf83488401610f7e565b90505b6000670de0b6b3a764000085610cea846188b8611a1c565b610cf4908b611a33565b610cfe9190611a1c565b610d089190611a46565b905060028b6002811115610d1e57610d1e611a68565b14610d3f57600254610d3f906001600160a01b03888116918a911684610f98565b5050505050505050505050565b60606000808080803681610d676102776101208d018d61196e565b9550955095509550955095508181905060401480610d855750604181145b610df9576040805162461bcd60e51b81526020600482015260248101919091527f566572696679696e675061796d61737465723a20696e76616c6964207369676e60448201527f6174757265206c656e67746820696e207061796d6173746572416e6444617461606482015260840161040e565b6000610e5e610e0b8d8989898961055e565b6040517f19457468657265756d205369676e6564204d6573736167653a0a3332000000006020820152603c8101829052600090605c01604051602081830303815290604052805190602001209050919050565b604080516020810190915260008152995090506001600160a01b03851615610ed957610e8d60208d018d61165c565b604080516001600160a01b039283166020820152918716908201526060810185905260e08d013560808201526101008d013560a082015260c00160405160208183030381529060405298505b610f198184848080601f01602080910402602001604051908101604052809392919081815260200183838082843760009201919091525061100792505050565b6001546001600160a01b03908116911614610f4b5788610f3b600189896110a9565b9850985050505050505050610b10565b88610f58600089896110a9565b9850985050505050505050935093915050565b6000604051828085833790209392505050565b6000818310610f8d5781610f8f565b825b90505b92915050565b604080516001600160a01b0385811660248301528416604482015260648082018490528251808303909101815260849091019091526020810180517bffffffffffffffffffffffffffffffffffffffffffffffffffffffff166323b872dd60e01b1790526107799085906110e3565b6000815160410361103a5760208201516040830151606084015160001a611030868285856111cd565b9350505050610f92565b81516040036110615760208201516040830151611058858383611376565b92505050610f92565b60405162461bcd60e51b815260206004820152601f60248201527f45434453413a20696e76616c6964207369676e6174757265206c656e67746800604482015260640161040e565b600060d08265ffffffffffff16901b60a08465ffffffffffff16901b856110d15760006110d4565b60015b60ff16171790505b9392505050565b6000611138826040518060400160405280602081526020017f5361666545524332303a206c6f772d6c6576656c2063616c6c206661696c6564815250856001600160a01b03166113b99092919063ffffffff16565b8051909150156111c857808060200190518101906111569190611a7e565b6111c85760405162461bcd60e51b815260206004820152602a60248201527f5361666545524332303a204552433230206f7065726174696f6e20646964206e60448201527f6f74207375636365656400000000000000000000000000000000000000000000606482015260840161040e565b505050565b60007f7fffffffffffffffffffffffffffffff5d576e7357a4501ddfe92f46681b20a082111561124a5760405162461bcd60e51b815260206004820152602260248201527f45434453413a20696e76616c6964207369676e6174757265202773272076616c604482015261756560f01b606482015260840161040e565b8360ff16601b148061125f57508360ff16601c145b6112b65760405162461bcd60e51b815260206004820152602260248201527f45434453413a20696e76616c6964207369676e6174757265202776272076616c604482015261756560f01b606482015260840161040e565b6040805160008082526020820180845288905260ff871692820192909252606081018590526080810184905260019060a0016020604051602081039080840390855afa15801561130a573d6000803e3d6000fd5b5050604051601f1901519150506001600160a01b03811661136d5760405162461bcd60e51b815260206004820152601860248201527f45434453413a20696e76616c6964207369676e61747572650000000000000000604482015260640161040e565b95945050505050565b60007f7fffffffffffffffffffffffffffffffffffffffffffffffffffffffffffffff821660ff83901c601b016113af868287856111cd565b9695505050505050565b60606113c884846000856113d0565b949350505050565b6060824710156114485760405162461bcd60e51b815260206004820152602660248201527f416464726573733a20696e73756666696369656e742062616c616e636520666f60448201527f722063616c6c0000000000000000000000000000000000000000000000000000606482015260840161040e565b843b6114965760405162461bcd60e51b815260206004820152601d60248201527f416464726573733a2063616c6c20746f206e6f6e2d636f6e7472616374000000604482015260640161040e565b600080866001600160a01b031685876040516114b29190611aa0565b60006040518083038185875af1925050503d80600081146114ef576040519150601f19603f3d011682016040523d82523d6000602084013e6114f4565b606091505b509150915061150482828661150f565b979650505050505050565b6060831561151e5750816110dc565b82511561152e5782518084602001fd5b8160405162461bcd60e51b815260040161040e9190611abc565b60006020828403121561155a57600080fd5b813563ffffffff811681146110dc57600080fd5b6001600160a01b0381168114610af157600080fd5b6000806040838503121561159657600080fd5b82356115a18161156e565b946020939093013593505050565b600061016082840312156115c257600080fd5b50919050565b803565ffffffffffff811681146115de57600080fd5b919050565b600080600080600060a086880312156115fb57600080fd5b853567ffffffffffffffff81111561161257600080fd5b61161e888289016115af565b95505061162d602087016115c8565b935061163b604087016115c8565b9250606086013561164b8161156e565b949793965091946080013592915050565b60006020828403121561166e57600080fd5b81356110dc8161156e565b60008083601f84011261168b57600080fd5b50813567ffffffffffffffff8111156116a357600080fd5b6020830191508360208285010111156116bb57600080fd5b9250929050565b600080602083850312156116d557600080fd5b823567ffffffffffffffff8111156116ec57600080fd5b6116f885828601611679565b90969095509350505050565b600065ffffffffffff80891683528088166020840152506001600160a01b038616604083015284606083015260a060808301528260a0830152828460c0840137600060c0848401015260c0601f19601f8501168301019050979650505050505050565b6000806000806060858703121561177d57600080fd5b84356003811061178c57600080fd5b9350602085013567ffffffffffffffff8111156117a857600080fd5b6117b487828801611679565b9598909750949560400135949350505050565b6000806000606084860312156117dc57600080fd5b833567ffffffffffffffff8111156117f357600080fd5b6117ff868287016115af565b9660208601359650604090950135949350505050565b60005b83811015611830578181015183820152602001611818565b50506000910152565b60008151808452611851816020860160208601611815565b601f01601f19169290920160200192915050565b6040815260006118786040830185611839565b90508260208301529392505050565b60e08152600061189a60e083018a611839565b6020830198909852506001600160a01b03958616604082015265ffffffffffff948516606082015292909316608083015290921660a083015260c090910152919050565b600080858511156118ee57600080fd5b838611156118fb57600080fd5b5050820193919092039150565b6000806000806080858703121561191e57600080fd5b611927856115c8565b9350611935602086016115c8565b925060408501356119458161156e565b9396929550929360600135925050565b60006020828403121561196757600080fd5b5051919050565b6000808335601e1984360301811261198557600080fd5b83018035915067ffffffffffffffff8211156119a057600080fd5b6020019150368190038213156116bb57600080fd5b600080600080600060a086880312156119cd57600080fd5b85356119d88161156e565b945060208601356119e88161156e565b94979496505050506040830135926060810135926080909101359150565b634e487b7160e01b600052601160045260246000fd5b8082028115828204841417610f9257610f92611a06565b80820180821115610f9257610f92611a06565b600082611a6357634e487b7160e01b600052601260045260246000fd5b500490565b634e487b7160e01b600052602160045260246000fd5b600060208284031215611a9057600080fd5b815180151581146110dc57600080fd5b60008251611ab2818460208701611815565b9190910192915050565b602081526000610f8f602083018461183956fea164736f6c6343000813000a",
  "devdoc": {
    "kind": "dev",
    "methods": {
      "addStake(uint32)": {
        "params": {
          "unstakeDelaySec": "- the unstake delay for this paymaster. Can only be increased."
        }
      },
      "owner()": {
        "details": "Returns the address of the current owner."
      },
      "postOp(uint8,bytes,uint256)": {
        "params": {
          "actualGasCost": "- actual gas used so far (without this postOp call).",
          "context": "- the context value returned by validatePaymasterUserOp",
          "mode": "enum with the following options:      opSucceeded - user operation succeeded.      opReverted  - user op reverted. still has to pay for gas.      postOpReverted - user op succeeded, but caused postOp (in mode=opSucceeded) to revert.                       Now this is the 2nd call, after user's op was deliberately reverted."
        }
      },
      "renounceOwnership()": {
        "details": "Leaves the contract without owner. It will not be possible to call `onlyOwner` functions anymore. Can only be called by the current owner. NOTE: Renouncing ownership will leave the contract without an owner, thereby removing any functionality that is only available to the owner."
      },
      "transferOwnership(address)": {
        "details": "Transfers ownership of the contract to a new account (`newOwner`). Can only be called by the current owner."
      },
      "validatePaymasterUserOp((address,uint256,bytes,bytes,uint256,uint256,uint256,uint256,uint256,bytes,bytes),bytes32,uint256)": {
        "params": {
          "maxCost": "the maximum cost of this transaction (based on maximum gas and gas price from userOp)",
          "userOp": "the user operation",
          "userOpHash": "hash of the user's request data."
        },
        "returns": {
          "context": "value to send to a postOp      zero length to signify postOp is not required.",
          "validationData": "signature and time-range of this operation, encoded the same as the return value of validateUserOperation      <20-byte> sigAuthorizer - 0 for valid signature, 1 to mark signature failure,         otherwise, an address of an \"authorizer\" contract.      <6-byte> validUntil - last timestamp this operation is valid. 0 for \"indefinite\"      <6-byte> validAfter - first timestamp this operation is valid      Note that the validation code cannot use block.timestamp (or block.number) directly."
        }
      },
      "withdrawStake(address)": {
        "params": {
          "withdrawAddress": "the address to send withdrawn value."
        }
      },
      "withdrawTo(address,uint256)": {
        "params": {
          "amount": "to withdraw",
          "withdrawAddress": "target to send to"
        }
      }
    },
    "version": 1
  },
  "userdoc": {
    "kind": "user",
    "methods": {
      "addStake(uint32)": {
        "notice": "add stake for this paymaster. This method can also carry eth value to add to the current stake."
      },
      "deposit()": {
        "notice": "add a deposit for this paymaster, used for paying for transaction fees"
      },
      "getDeposit()": {
        "notice": "return current paymaster's deposit on the entryPoint."
      },
      "postOp(uint8,bytes,uint256)": {
        "notice": "post-operation handler. Must verify sender is the entryPoint"
      },
      "unlockStake()": {
        "notice": "unlock the stake, in order to withdraw it. The paymaster can't serve requests once unlocked, until it calls addStake again"
      },
      "validatePaymasterUserOp((address,uint256,bytes,bytes,uint256,uint256,uint256,uint256,uint256,bytes,bytes),bytes32,uint256)": {
        "notice": "payment validation: check if paymaster agrees to pay. Must verify sender is the entryPoint. Revert to reject this request. Note that bundlers will reject this method if it changes the state, unless the paymaster is trusted (whitelisted) The paymaster pre-pays using its deposit, and receive back a refund after the postOp method returns."
      },
      "withdrawStake(address)": {
        "notice": "withdraw the entire paymaster's stake. stake must be unlocked first (and then wait for the unstakeDelay to be over)"
      },
      "withdrawTo(address,uint256)": {
        "notice": "withdraw value from the deposit"
      }
    },
    "notice": "A paymaster based on the eth-infinitism sample VerifyingPaymaster contract. It has the same functionality as the sample, but with added support for withdrawing ERC20 tokens. All withdrawn tokens will be transferred to the owner address. Note that the off-chain signer should have a strategy in place to handle a failed token withdrawal. See account-abstraction/contracts/samples/VerifyingPaymaster.sol for detailed comments.",
    "version": 1
  },
  "storageLayout": {
    "storage": [
      {
        "astId": 7,
        "contract": "contracts/VerifyingPaymaster.sol:VerifyingPaymaster",
        "label": "_owner",
        "offset": 0,
        "slot": "0",
        "type": "t_address"
      },
      {
        "astId": 2691,
        "contract": "contracts/VerifyingPaymaster.sol:VerifyingPaymaster",
        "label": "verifier",
        "offset": 0,
        "slot": "1",
        "type": "t_address"
      },
      {
        "astId": 2693,
        "contract": "contracts/VerifyingPaymaster.sol:VerifyingPaymaster",
        "label": "vault",
        "offset": 0,
        "slot": "2",
        "type": "t_address"
      }
    ],
    "types": {
      "t_address": {
        "encoding": "inplace",
        "label": "address",
        "numberOfBytes": "20"
      }
    }
  }
}